{
  "contractName": "HealthRecord",
  "abi": [
    {
      "anonymous": false,
      "inputs": [
        {
          "indexed": true,
          "internalType": "uint256",
          "name": "id",
          "type": "uint256"
        },
        {
          "indexed": true,
          "internalType": "address",
          "name": "createdBy",
          "type": "address"
        }
      ],
      "name": "RecordAdded",
      "type": "event"
    },
    {
      "inputs": [
        {
          "internalType": "string",
          "name": "_data",
          "type": "string"
        }
      ],
      "name": "addRecord",
      "outputs": [],
      "stateMutability": "nonpayable",
      "type": "function"
    },
    {
      "inputs": [
        {
          "internalType": "uint256",
          "name": "_id",
          "type": "uint256"
        }
      ],
      "name": "getRecord",
      "outputs": [
        {
          "internalType": "string",
          "name": "",
          "type": "string"
        }
      ],
      "stateMutability": "view",
      "type": "function",
      "constant": true
    },
    {
      "inputs": [
        {
          "internalType": "address",
          "name": "_user",
          "type": "address"
        }
      ],
      "name": "getUserRecords",
      "outputs": [
        {
          "internalType": "uint256[]",
          "name": "",
          "type": "uint256[]"
        }
      ],
      "stateMutability": "view",
      "type": "function",
      "constant": true
    }
  ],
  "bytecode": "0x608060405234801561001057600080fd5b506105e4806100206000396000f3fe608060405234801561001057600080fd5b50600436106100415760003560e01c806303e9e6091461004657806351096b021461006f578063d81aa8c41461008f575b600080fd5b61005961005436600461047e565b6100a4565b60405161006691906104da565b60405180910390f35b61008261007d3660046103af565b610193565b6040516100669190610496565b6100a261009d3660046103dd565b6101fe565b005b60005460609082106100d15760405162461bcd60e51b81526004016100c89061052d565b60405180910390fd5b600082815481106100f257634e487b7160e01b600052603260045260246000fd5b9060005260206000209060040201600101805461010e9061055d565b80601f016020809104026020016040519081016040528092919081815260200182805461013a9061055d565b80156101875780601f1061015c57610100808354040283529160200191610187565b820191906000526020600020905b81548152906001019060200180831161016a57829003601f168201915b50505050509050919050565b6001600160a01b03811660009081526001602090815260409182902080548351818402810184019094528084526060939283018282801561018757602002820191906000526020600020905b8154815260200190600101908083116101df5750505050509050919050565b6000805460408051608081018252828152602080820186815233938301939093524260608301526001840185559380528051600484027f290decd9548b62a8d60345a988386fc84ba6bc95484008f6362f93160ef3e563810191825592518051949592949193610295937f290decd9548b62a8d60345a988386fc84ba6bc95484008f6362f93160ef3e56490910192910190610316565b506040828101516002830180546001600160a01b0319166001600160a01b03909216919091179055606090920151600390910155336000818152600160208181528483208054928301815583528220018490559151909183917f6afeb99dfbac77dacfc4c38cb125e51d6fbaad0d0aa90aa69df50f23b3cdf2959190a35050565b8280546103229061055d565b90600052602060002090601f016020900481019282610344576000855561038a565b82601f1061035d57805160ff191683800117855561038a565b8280016001018555821561038a579182015b8281111561038a57825182559160200191906001019061036f565b5061039692915061039a565b5090565b5b80821115610396576000815560010161039b565b6000602082840312156103c0578081fd5b81356001600160a01b03811681146103d6578182fd5b9392505050565b600060208083850312156103ef578182fd5b823567ffffffffffffffff80821115610406578384fd5b818501915085601f830112610419578384fd5b81358181111561042b5761042b610598565b604051601f8201601f191681018501838111828210171561044e5761044e610598565b6040528181528382018501881015610464578586fd5b818585018683013790810190930193909352509392505050565b60006020828403121561048f578081fd5b5035919050565b6020808252825182820181905260009190848201906040850190845b818110156104ce578351835292840192918401916001016104b2565b50909695505050505050565b6000602080835283518082850152825b81811015610506578581018301518582016040015282016104ea565b818111156105175783604083870101525b50601f01601f1916929092016040019392505050565b6020808252601690820152752932b1b7b932103237b2b9903737ba1032bc34b9ba1760511b604082015260600190565b60028104600182168061057157607f821691505b6020821081141561059257634e487b7160e01b600052602260045260246000fd5b50919050565b634e487b7160e01b600052604160045260246000fdfea2646970667358221220bb577d07059108a75453e68be1a2d1b1b9be7406a644d3922cd16b810f537c0d64736f6c63430008000033",
  "immutableReferences": {},
  "source": "// SPDX-License-Identifier: MIT\r\npragma solidity ^0.8.0;\r\n\r\ncontract HealthRecord {\r\n    // A struct to represent a health record\r\n    struct Record {\r\n        uint256 id;\r\n        string data; // This can be a hash or encrypted data of the actual health record\r\n        address createdBy; // To track which user (address) created the record\r\n        uint256 timestamp; // To track when the record was created\r\n    }\r\n\r\n    // An array to store all health records\r\n    Record[] private records;\r\n\r\n    // Mapping from user address to list of record IDs they own\r\n    mapping(address => uint256[]) private userRecords;\r\n\r\n    // Event to be emitted when a new record is added\r\n    event RecordAdded(uint256 indexed id, address indexed createdBy);\r\n\r\n    /**\r\n     * @dev Adds a new health record.\r\n     * @param _data The health record data (preferably a hash or encrypted data).\r\n     */\r\n    function addRecord(string memory _data) public {\r\n        uint256 recordId = records.length;\r\n        records.push(Record(recordId, _data, msg.sender, block.timestamp));\r\n        userRecords[msg.sender].push(recordId);\r\n\r\n        emit RecordAdded(recordId, msg.sender);\r\n    }\r\n\r\n    /**\r\n     * @dev Retrieves a specific health record by ID.\r\n     * @param _id The ID of the record to retrieve.\r\n     * @return The health record data.\r\n     */\r\n    function getRecord(uint256 _id) public view returns (string memory) {\r\n        require(_id < records.length, \"Record does not exist.\");\r\n        return records[_id].data;\r\n    }\r\n\r\n    /**\r\n     * @dev Gets the list of record IDs owned by a user.\r\n     * @param _user The address of the user.\r\n     * @return The list of record IDs.\r\n     */\r\n    function getUserRecords(address _user) public view returns (uint256[] memory) {\r\n        return userRecords[_user];\r\n    }\r\n}\r\n",
  "sourcePath": "C:\\Users\\jasha\\Documents\\PHR Project Repo\\PHR_Project\\PHRApplication\\blockchain\\contracts\\HealthRecord.sol",
  "compiler": {
    "name": "solc",
    "version": "0.8.0+commit.c7dfd78e.Emscripten.clang"
  },
  "schemaVersion": "3.4.16",
  "updatedAt": "2023-11-18T00:19:50.280Z",
  "networkType": "ethereum",
  "devdoc": {
    "kind": "dev",
    "methods": {
      "addRecord(string)": {
        "details": "Adds a new health record.",
        "params": {
          "_data": "The health record data (preferably a hash or encrypted data)."
        }
      },
      "getRecord(uint256)": {
        "details": "Retrieves a specific health record by ID.",
        "params": {
          "_id": "The ID of the record to retrieve."
        },
        "returns": {
          "_0": "The health record data."
        }
      },
      "getUserRecords(address)": {
        "details": "Gets the list of record IDs owned by a user.",
        "params": {
          "_user": "The address of the user."
        },
        "returns": {
          "_0": "The list of record IDs."
        }
      }
    },
    "version": 1
  },
  "userdoc": {
    "kind": "user",
    "methods": {},
    "version": 1
  }
}