{
  "contractName": "HealthRecordContract",
  "abi": [
    {
      "anonymous": false,
      "inputs": [
        {
          "indexed": true,
          "internalType": "address",
          "name": "patient",
          "type": "address"
        },
        {
          "indexed": false,
          "internalType": "string",
          "name": "diagnosis",
          "type": "string"
        },
        {
          "indexed": false,
          "internalType": "string",
          "name": "treatments",
          "type": "string"
        },
        {
          "indexed": false,
          "internalType": "string",
          "name": "medications",
          "type": "string"
        },
        {
          "indexed": false,
          "internalType": "string",
          "name": "allergies",
          "type": "string"
        },
        {
          "indexed": false,
          "internalType": "string",
          "name": "immunizations",
          "type": "string"
        },
        {
          "indexed": false,
          "internalType": "string",
          "name": "labResults",
          "type": "string"
        },
        {
          "indexed": false,
          "internalType": "address",
          "name": "doctor",
          "type": "address"
        }
      ],
      "name": "HealthRecordUpdated",
      "type": "event"
    },
    {
      "inputs": [
        {
          "internalType": "address",
          "name": "",
          "type": "address"
        }
      ],
      "name": "healthRecords",
      "outputs": [
        {
          "internalType": "string",
          "name": "patientName",
          "type": "string"
        },
        {
          "internalType": "string",
          "name": "diagnosis",
          "type": "string"
        },
        {
          "internalType": "string",
          "name": "treatments",
          "type": "string"
        },
        {
          "internalType": "string",
          "name": "medications",
          "type": "string"
        },
        {
          "internalType": "string",
          "name": "allergies",
          "type": "string"
        },
        {
          "internalType": "string",
          "name": "immunizations",
          "type": "string"
        },
        {
          "internalType": "string",
          "name": "labResults",
          "type": "string"
        },
        {
          "internalType": "address",
          "name": "doctor",
          "type": "address"
        }
      ],
      "stateMutability": "view",
      "type": "function"
    },
    {
      "inputs": [
        {
          "internalType": "string",
          "name": "_patientName",
          "type": "string"
        },
        {
          "internalType": "string",
          "name": "_diagnosis",
          "type": "string"
        },
        {
          "internalType": "string",
          "name": "_treatments",
          "type": "string"
        },
        {
          "internalType": "string",
          "name": "_medications",
          "type": "string"
        },
        {
          "internalType": "string",
          "name": "_allergies",
          "type": "string"
        },
        {
          "internalType": "string",
          "name": "_immunizations",
          "type": "string"
        },
        {
          "internalType": "string",
          "name": "_labResults",
          "type": "string"
        }
      ],
      "name": "updateHealthRecord",
      "outputs": [],
      "stateMutability": "nonpayable",
      "type": "function"
    },
    {
      "inputs": [
        {
          "internalType": "string",
          "name": "_patientName",
          "type": "string"
        }
      ],
      "name": "createHealthRecord",
      "outputs": [],
      "stateMutability": "nonpayable",
      "type": "function"
    },
    {
      "inputs": [
        {
          "internalType": "address",
          "name": "patient",
          "type": "address"
        }
      ],
      "name": "getHealthRecord",
      "outputs": [
        {
          "internalType": "string",
          "name": "patientName",
          "type": "string"
        },
        {
          "internalType": "string",
          "name": "diagnosis",
          "type": "string"
        },
        {
          "internalType": "string",
          "name": "treatments",
          "type": "string"
        },
        {
          "internalType": "string",
          "name": "medications",
          "type": "string"
        },
        {
          "internalType": "string",
          "name": "allergies",
          "type": "string"
        },
        {
          "internalType": "string",
          "name": "immunizations",
          "type": "string"
        },
        {
          "internalType": "string",
          "name": "labResults",
          "type": "string"
        },
        {
          "internalType": "address",
          "name": "doctor",
          "type": "address"
        }
      ],
      "stateMutability": "view",
      "type": "function"
    }
  ],
  "bytecode": "0x608060405234801561001057600080fd5b5061126b806100206000396000f3fe608060405234801561001057600080fd5b506004361061004c5760003560e01c806311cf8d85146100515780636566c41d146100815780638862a08314610096578063bd8f1752146100a9575b600080fd5b61006461005f366004610e05565b6100bc565b60405161007898979695949392919061105e565b60405180910390f35b61009461008f366004610e6e565b6104bd565b005b6100946100a4366004610e33565b61067e565b6100646100b7366004610e05565b610855565b6000602081905290815260409020805481906100d7906111e4565b80601f0160208091040260200160405190810160405280929190818152602001828054610103906111e4565b80156101505780601f1061012557610100808354040283529160200191610150565b820191906000526020600020905b81548152906001019060200180831161013357829003601f168201915b505050505090806001018054610165906111e4565b80601f0160208091040260200160405190810160405280929190818152602001828054610191906111e4565b80156101de5780601f106101b3576101008083540402835291602001916101de565b820191906000526020600020905b8154815290600101906020018083116101c157829003601f168201915b5050505050908060020180546101f3906111e4565b80601f016020809104026020016040519081016040528092919081815260200182805461021f906111e4565b801561026c5780601f106102415761010080835404028352916020019161026c565b820191906000526020600020905b81548152906001019060200180831161024f57829003601f168201915b505050505090806003018054610281906111e4565b80601f01602080910402602001604051908101604052809291908181526020018280546102ad906111e4565b80156102fa5780601f106102cf576101008083540402835291602001916102fa565b820191906000526020600020905b8154815290600101906020018083116102dd57829003601f168201915b50505050509080600401805461030f906111e4565b80601f016020809104026020016040519081016040528092919081815260200182805461033b906111e4565b80156103885780601f1061035d57610100808354040283529160200191610388565b820191906000526020600020905b81548152906001019060200180831161036b57829003601f168201915b50505050509080600501805461039d906111e4565b80601f01602080910402602001604051908101604052809291908181526020018280546103c9906111e4565b80156104165780601f106103eb57610100808354040283529160200191610416565b820191906000526020600020905b8154815290600101906020018083116103f957829003601f168201915b50505050509080600601805461042b906111e4565b80601f0160208091040260200160405190810160405280929190818152602001828054610457906111e4565b80156104a45780601f10610479576101008083540402835291602001916104a4565b820191906000526020600020905b81548152906001019060200180831161048757829003601f168201915b505050600790930154919250506001600160a01b031688565b33600090815260208190526040812080546104d7906111e4565b9050116104ff5760405162461bcd60e51b81526004016104f690611108565b60405180910390fd5b60408051610100810182528881526020808201899052818301889052606082018790526080820186905260a0820185905260c082018490523360e0830181905260009081528082529290922081518051929391926105609284920190610ceb565b5060208281015180516105799260018501920190610ceb565b5060408201518051610595916002840191602090910190610ceb565b50606082015180516105b1916003840191602090910190610ceb565b50608082015180516105cd916004840191602090910190610ceb565b5060a082015180516105e9916005840191602090910190610ceb565b5060c08201518051610605916006840191602090910190610ceb565b5060e09190910151600790910180546001600160a01b0319166001600160a01b0390921691909117905560405133907ff610deeb802e209c9a518c99d93d79732c1ea16719a749289f80746bc219683a9061066d908990899089908990899089908990610fcc565b60405180910390a250505050505050565b3360009081526020819052604090208054610698906111e4565b1590506106b75760405162461bcd60e51b81526004016104f6906111ad565b604080516101008101825282815281516020818101845260008083528184019290925283518082018552828152838501528351808201855282815260608401528351808201855282815260808401528351808201855282815260a08401528351808201855282815260c08401523360e08401819052825281815292902081518051929391926107499284920190610ceb565b5060208281015180516107629260018501920190610ceb565b506040820151805161077e916002840191602090910190610ceb565b506060820151805161079a916003840191602090910190610ceb565b50608082015180516107b6916004840191602090910190610ceb565b5060a082015180516107d2916005840191602090910190610ceb565b5060c082015180516107ee916006840191602090910190610ceb565b5060e09190910151600790910180546001600160a01b0319166001600160a01b0390921691909117905560405133907ff610deeb802e209c9a518c99d93d79732c1ea16719a749289f80746bc219683a9061084a90839061113f565b60405180910390a250565b60608060608060608060606000806000808b6001600160a01b03166001600160a01b03168152602001908152602001600020604051806101000160405290816000820180546108a3906111e4565b80601f01602080910402602001604051908101604052809291908181526020018280546108cf906111e4565b801561091c5780601f106108f15761010080835404028352916020019161091c565b820191906000526020600020905b8154815290600101906020018083116108ff57829003601f168201915b50505050508152602001600182018054610935906111e4565b80601f0160208091040260200160405190810160405280929190818152602001828054610961906111e4565b80156109ae5780601f10610983576101008083540402835291602001916109ae565b820191906000526020600020905b81548152906001019060200180831161099157829003601f168201915b505050505081526020016002820180546109c7906111e4565b80601f01602080910402602001604051908101604052809291908181526020018280546109f3906111e4565b8015610a405780601f10610a1557610100808354040283529160200191610a40565b820191906000526020600020905b815481529060010190602001808311610a2357829003601f168201915b50505050508152602001600382018054610a59906111e4565b80601f0160208091040260200160405190810160405280929190818152602001828054610a85906111e4565b8015610ad25780601f10610aa757610100808354040283529160200191610ad2565b820191906000526020600020905b815481529060010190602001808311610ab557829003601f168201915b50505050508152602001600482018054610aeb906111e4565b80601f0160208091040260200160405190810160405280929190818152602001828054610b17906111e4565b8015610b645780601f10610b3957610100808354040283529160200191610b64565b820191906000526020600020905b815481529060010190602001808311610b4757829003601f168201915b50505050508152602001600582018054610b7d906111e4565b80601f0160208091040260200160405190810160405280929190818152602001828054610ba9906111e4565b8015610bf65780601f10610bcb57610100808354040283529160200191610bf6565b820191906000526020600020905b815481529060010190602001808311610bd957829003601f168201915b50505050508152602001600682018054610c0f906111e4565b80601f0160208091040260200160405190810160405280929190818152602001828054610c3b906111e4565b8015610c885780601f10610c5d57610100808354040283529160200191610c88565b820191906000526020600020905b815481529060010190602001808311610c6b57829003601f168201915b5050509183525050600791909101546001600160a01b031660209182015281519082015160408301516060840151608085015160a086015160c087015160e090970151959f50939d50919b50995097509550909350915050919395975091939597565b828054610cf7906111e4565b90600052602060002090601f016020900481019282610d195760008555610d5f565b82601f10610d3257805160ff1916838001178555610d5f565b82800160010185558215610d5f579182015b82811115610d5f578251825591602001919060010190610d44565b50610d6b929150610d6f565b5090565b5b80821115610d6b5760008155600101610d70565b600082601f830112610d94578081fd5b813567ffffffffffffffff80821115610daf57610daf61121f565b604051601f8301601f191681016020018281118282101715610dd357610dd361121f565b604052828152848301602001861015610dea578384fd5b82602086016020830137918201602001929092529392505050565b600060208284031215610e16578081fd5b81356001600160a01b0381168114610e2c578182fd5b9392505050565b600060208284031215610e44578081fd5b813567ffffffffffffffff811115610e5a578182fd5b610e6684828501610d84565b949350505050565b600080600080600080600060e0888a031215610e88578283fd5b873567ffffffffffffffff80821115610e9f578485fd5b610eab8b838c01610d84565b985060208a0135915080821115610ec0578485fd5b610ecc8b838c01610d84565b975060408a0135915080821115610ee1578485fd5b610eed8b838c01610d84565b965060608a0135915080821115610f02578485fd5b610f0e8b838c01610d84565b955060808a0135915080821115610f23578485fd5b610f2f8b838c01610d84565b945060a08a0135915080821115610f44578384fd5b610f508b838c01610d84565b935060c08a0135915080821115610f65578283fd5b50610f728a828b01610d84565b91505092959891949750929550565b60008151808452815b81811015610fa657602081850181015186830182015201610f8a565b81811115610fb75782602083870101525b50601f01601f19169290920160200192915050565b600060e08252610fdf60e083018a610f81565b8281036020840152610ff1818a610f81565b905082810360408401526110058189610f81565b905082810360608401526110198188610f81565b9050828103608084015261102d8187610f81565b905082810360a08401526110418186610f81565b91505060018060a01b03831660c083015298975050505050505050565b60006101008083526110728184018c610f81565b90508281036020840152611086818b610f81565b9050828103604084015261109a818a610f81565b905082810360608401526110ae8189610f81565b905082810360808401526110c28188610f81565b905082810360a08401526110d68187610f81565b905082810360c08401526110ea8186610f81565b91505060018060a01b03831660e08301529998505050505050505050565b60208082526018908201527f50617469656e74207265636f7264206e6f7420666f756e640000000000000000604082015260600190565b60e0808252600090820181905261010060208301819052820181905261012060408301819052820181905261014060608301819052820181905261016060808301819052820181905261018060a083018190528201526001600160a01b039190911660c08201526101a00190565b6020808252601d908201527f50617469656e74207265636f726420616c726561647920657869737473000000604082015260600190565b6002810460018216806111f857607f821691505b6020821081141561121957634e487b7160e01b600052602260045260246000fd5b50919050565b634e487b7160e01b600052604160045260246000fdfea26469706673582212203620e9b36b05c9c0764502b351f5f5d73cfd5d1ff1ef668e28ca8b0ea4f6743a64736f6c63430008000033",
  "immutableReferences": {},
  "source": "// SPDX-License-Identifier: MIT\r\npragma solidity ^0.8.0;\r\n\r\ncontract HealthRecordContract {\r\n\r\n    // Struct to represent a patient's health record\r\n    struct HealthRecord {\r\n        string patientName;\r\n        string diagnosis;\r\n        string treatments;\r\n        string medications;\r\n        string allergies;\r\n        string immunizations;\r\n        string labResults;\r\n        address doctor;\r\n    }\r\n\r\n    // Mapping to store health records for each patient\r\n    mapping(address => HealthRecord) public healthRecords;\r\n\r\n    // Event to log when a health record is updated\r\n    event HealthRecordUpdated(address indexed patient, string diagnosis, string treatments, string medications, string allergies, string immunizations, string labResults, address doctor);\r\n\r\n    // Function to update a patient's health record\r\n    function updateHealthRecord(\r\n        string memory _patientName,\r\n        string memory _diagnosis,\r\n        string memory _treatments,\r\n        string memory _medications,\r\n        string memory _allergies,\r\n        string memory _immunizations,\r\n        string memory _labResults\r\n    ) public {\r\n        // Ensure the patient has an existing health record\r\n        require(bytes(healthRecords[msg.sender].patientName).length > 0, \"Patient record not found\");\r\n\r\n        // Update the health record\r\n        healthRecords[msg.sender] = HealthRecord({\r\n            patientName: _patientName,\r\n            diagnosis: _diagnosis,\r\n            treatments: _treatments,\r\n            medications: _medications,\r\n            allergies: _allergies,\r\n            immunizations: _immunizations,\r\n            labResults: _labResults,\r\n            doctor: msg.sender\r\n        });\r\n\r\n        // Emit an event to log the update\r\n        emit HealthRecordUpdated(msg.sender, _diagnosis, _treatments, _medications, _allergies, _immunizations, _labResults, msg.sender);\r\n    }\r\n\r\n    // Function to create a new health record for a patient\r\n    function createHealthRecord(string memory _patientName) public {\r\n        // Ensure the patient does not already have a health record\r\n        require(bytes(healthRecords[msg.sender].patientName).length == 0, \"Patient record already exists\");\r\n\r\n        // Create a new health record\r\n        healthRecords[msg.sender] = HealthRecord({\r\n            patientName: _patientName,\r\n            diagnosis: \"\",\r\n            treatments: \"\",\r\n            medications: \"\",\r\n            allergies: \"\",\r\n            immunizations: \"\",\r\n            labResults: \"\",\r\n            doctor: msg.sender\r\n        });\r\n\r\n        // Emit an event to log the creation\r\n        emit HealthRecordUpdated(msg.sender, \"\", \"\", \"\", \"\", \"\", \"\", msg.sender);\r\n    }\r\n\r\n    // Function to retrieve a patient's health record\r\n    function getHealthRecord(address patient) public view returns (\r\n        string memory patientName,\r\n        string memory diagnosis,\r\n        string memory treatments,\r\n        string memory medications,\r\n        string memory allergies,\r\n        string memory immunizations,\r\n        string memory labResults,\r\n        address doctor\r\n    ) {\r\n        HealthRecord memory record = healthRecords[patient];\r\n        return (\r\n            record.patientName,\r\n            record.diagnosis,\r\n            record.treatments,\r\n            record.medications,\r\n            record.allergies,\r\n            record.immunizations,\r\n            record.labResults,\r\n            record.doctor\r\n        );\r\n    }\r\n}\r\n",
  "sourcePath": "C:\\Users\\jasha\\Documents\\PHR Project Repo\\PHR_Project\\PHRApplication\\blockchain\\contracts\\SmartContract1.sol",
  "compiler": {
    "name": "solc",
    "version": "0.8.0+commit.c7dfd78e.Emscripten.clang"
  },
  "schemaVersion": "3.4.16",
  "updatedAt": "2023-11-19T23:17:08.668Z",
  "devdoc": {
    "kind": "dev",
    "methods": {},
    "version": 1
  },
  "userdoc": {
    "kind": "user",
    "methods": {},
    "version": 1
  }
}