{
  "contractName": "HealthRecord",
  "abi": [
    {
      "inputs": [
        {
          "internalType": "string",
          "name": "result",
          "type": "string"
        }
      ],
      "name": "uploadLabResult",
      "outputs": [],
      "stateMutability": "nonpayable",
      "type": "function"
    },
    {
      "inputs": [
        {
          "internalType": "uint256",
          "name": "resultId",
          "type": "uint256"
        }
      ],
      "name": "getLabResult",
      "outputs": [
        {
          "internalType": "string",
          "name": "",
          "type": "string"
        }
      ],
      "stateMutability": "view",
      "type": "function",
      "constant": true
    },
    {
      "inputs": [],
      "name": "getUserLabResultsCount",
      "outputs": [
        {
          "internalType": "uint256",
          "name": "",
          "type": "uint256"
        }
      ],
      "stateMutability": "view",
      "type": "function",
      "constant": true
    }
  ],
  "bytecode": "0x608060405234801561001057600080fd5b50610476806100206000396000f3fe608060405234801561001057600080fd5b50600436106100415760003560e01c80635ca40434146100465780637e2d2c9b1461005b57806398880c4014610084575b600080fd5b6100596100543660046102aa565b610099565b005b61006e61006936600461034b565b6100f4565b60405161007b9190610363565b60405180910390f35b61008c6101fe565b60405161007b91906103e6565b3360009081526020818152604080832080548251808401909352808352828401868152600180830184559286529484902083516002830290910190815594518051919593946100ed93850192910190610211565b5050505050565b33600090815260208190526040902054606090821061012e5760405162461bcd60e51b8152600401610125906103b6565b60405180910390fd5b33600090815260208190526040902080548390811061015d57634e487b7160e01b600052603260045260246000fd5b90600052602060002090600202016001018054610179906103ef565b80601f01602080910402602001604051908101604052809291908181526020018280546101a5906103ef565b80156101f25780601f106101c7576101008083540402835291602001916101f2565b820191906000526020600020905b8154815290600101906020018083116101d557829003601f168201915b50505050509050919050565b3360009081526020819052604090205490565b82805461021d906103ef565b90600052602060002090601f01602090048101928261023f5760008555610285565b82601f1061025857805160ff1916838001178555610285565b82800160010185558215610285579182015b8281111561028557825182559160200191906001019061026a565b50610291929150610295565b5090565b5b808211156102915760008155600101610296565b600060208083850312156102bc578182fd5b823567ffffffffffffffff808211156102d3578384fd5b818501915085601f8301126102e6578384fd5b8135818111156102f8576102f861042a565b604051601f8201601f191681018501838111828210171561031b5761031b61042a565b6040528181528382018501881015610331578586fd5b818585018683013790810190930193909352509392505050565b60006020828403121561035c578081fd5b5035919050565b6000602080835283518082850152825b8181101561038f57858101830151858201604001528201610373565b818111156103a05783604083870101525b50601f01601f1916929092016040019392505050565b6020808252601690820152752932b9bab63a103237b2b9903737ba1032bc34b9ba1760511b604082015260600190565b90815260200190565b60028104600182168061040357607f821691505b6020821081141561042457634e487b7160e01b600052602260045260246000fd5b50919050565b634e487b7160e01b600052604160045260246000fdfea2646970667358221220c66303d7274a9959b4fd276b733cb7c477147453969d69374e37c76dd7f3015464736f6c63430008000033",
  "immutableReferences": {},
  "source": "// SPDX-License-Identifier: MIT\r\npragma solidity ^0.8.0;\r\n\r\ncontract HealthRecord {\r\n    struct LabResult {\r\n        uint256 id;\r\n        string result;\r\n    }\r\n\r\n    mapping(address => LabResult[]) private userLabResults;\r\n\r\n    function uploadLabResult(string memory result) public {\r\n        uint256 resultId = userLabResults[msg.sender].length;\r\n        userLabResults[msg.sender].push(LabResult(resultId, result));\r\n    }\r\n\r\n    function getLabResult(uint256 resultId) public view returns (string memory) {\r\n        require(resultId < userLabResults[msg.sender].length, \"Result does not exist.\");\r\n        return userLabResults[msg.sender][resultId].result;\r\n    }\r\n\r\n    function getUserLabResultsCount() public view returns (uint256) {\r\n        return userLabResults[msg.sender].length;\r\n    }\r\n}\r\n",
  "sourcePath": "C:\\Users\\jasha\\Documents\\PHR Project Repo\\PHR_Project\\PHRApplication\\blockchain\\contracts\\HealthRecord.sol",
  "compiler": {
    "name": "solc",
    "version": "0.8.0+commit.c7dfd78e.Emscripten.clang"
  },
  "schemaVersion": "3.4.16",
  "updatedAt": "2023-11-19T23:17:10.250Z",
  "networkType": "ethereum",
  "devdoc": {
    "kind": "dev",
    "methods": {},
    "version": 1
  },
  "userdoc": {
    "kind": "user",
    "methods": {},
    "version": 1
  }
}